:100000000C9434000C943E000C943E000C943E0082
:100010000C943E000C943E000C943E000C943E0068
:100020000C943E000C943E000C943E000C943E0058
:100030000C943E000C943E000C943E000C943E0048
:100040000C943E000C943E000C943E000C943E0038
:100050000C943E000C943E000C943E000C943E0028
:100060000C943E000C943E0011241FBECFEFD8E04C
:10007000DEBFCDBF0E945E000C9472000C940000A5
:100080001092C50087E08093C400E2ECF0E080812C
:1000900086608083E1ECF0E0808188618083089550
:1000A0009091C00095FFFCCF8093C6000895809189
:1000B000C00087FFFCCF8091C6000895259A0E945A
:1000C00040000E945700813421F0893211F08536BA
:1000D00009F42D9A823421F08A3211F0863689F79C
:0800E0002D98EFCFF894FFCF3B
:00000001FF
