:100000000C9434000C943E000C943E000C943E0082
:100010000C943E000C943E000C943E000C943E0068
:100020000C943E000C943E000C943E000C943E0058
:100030000C943E000C943E000C943E000C943E0048
:100040000C943E000C943E000C943E000C943E0038
:100050000C943E000C943E000C943E000C943E0028
:100060000C943E000C943E0011241FBECFEFD8E04C
:10007000DEBFCDBF0E945E000C946E000C940000A9
:100080001092C50087E68093C400E2ECF0E0808126
:1000900086608083E1ECF0E0808188618083089550
:1000A0009091C00095FFFCCF8093C6000895809189
:1000B000C00087FFFCCF8091C6000895259A0E945A
:1000C00040000E9457008D3211F0853409F42D9ABA
:1000D000893211F08134A9F72D98F3CFF894FFCF2E
:00000001FF
