:100000000C9434000C9449000C9449000C94490061
:100010000C9449000C9449000C9449000C9449003C
:100020000C9449000C9449000C9449000C9449002C
:100030000C9449000C9449000C9449000C9449001C
:100040000C9449000C9449000C9449000C9449000C
:100050000C9449000C9449000C9449000C944900FC
:100060000C9449000C94490011241FBECFEFD8E036
:10007000DEBFCDBF11E0A0E0B1E0E8EFF0E002C0EC
:1000800005900D92A631B107D9F70E946A000C9431
:100090007A000C94000086E08093C20087E0809391
:1000A000C4001092C50088E18093C100089590912A
:1000B000C00095FFFCCF8093C6000895CF93DF93D7
:1000C000EC018991882319F00E945700FACFDF9143
:1000D000CF9108950E944B008091C00087FFFCCF14
:1000E0008091C600813329F480E091E00E945E0097
:0800F000FBCF0895F894FFCF47
:1000F80048656C6C6F2066726F6D2041726475691B
:060108006E6F210A0000E9
:00000001FF
