:100000000C9434000C943E000C943E000C943E0082
:100010000C943E000C943E000C943E000C943E0068
:100020000C943E000C943E000C943E000C943E0058
:100030000C943E000C943E000C943E000C943E0048
:100040000C943E000C943E000C943E000C943E0038
:100050000C943E000C943E000C943E000C943E0028
:100060000C943E000C943E0011241FBECFEFD8E04C
:10007000DEBFCDBF0E9440000C945A000C940000DB
:10008000259A2D9A2FEF35E38EE691E021503040EE
:1000900080409040D9F700C000002D982FEF35E345
:1000A0008EE691E02150304080409040D9F700C06A
:0800B0000000E7CFF894FFCF38
:00000001FF
